:020000040000FA
:1000000003138316860188018312860188018316F3
:10001000013085008E309F008312C1309F0083160F
:10002000023085008701831287018710071497012A
:100030009101F93083169200831212145D2074200E
:1000400054307120453071204D3071205030712076
:100050004530712052307120413071205430712070
:100060005530712052307120453071203A30712066
:100070007B201F151F193A2883161E0883120310B0
:10008000A500A50C2508A700A6010A30A60AA7020C
:10009000031845282603A4002508A6000A30A60256
:1000A00003184F282607A300303024077120303072
:1000B000230771206C208920382801308600BE205B
:1000C000B920880138308600BE200C308600BE2062
:1000D00006308600BE200800DF30712043307120DA
:1000E00008008600BE200800081080308600BE2070
:1000F000B9200814080008108C308600BE20B920F2
:10010000081408000810C0308600BE20B92008146A
:1001100008001930A8001E30A9002330B000283094
:10012000B10028082502031CDB200319C320031C8F
:10013000080029082502031CC3200319C920031C39
:10014000080030082502031CC9200319CF20031C16
:10015000080031082502031CCF200319D520031CF9
:100160000800310825020318D5200800A00BB62886
:100170000800A00BB928A10BB92808008814B620E4
:100180008810B62008003E3095001C3097001215EC
:1001900008007C3095002C30970012150800BA300A
:1001A00095003C30970012150800F93095000C308E
:1001B000970012150800003095000C3097001215BA
:0201C000080035
:0401C20000340034D1
:00000001FF
